S01F000041443938333346756E6374696F6E47656E657261746F722E73726563BC
S11300000C94EE020C9487080C94AE080C94D5085A
S11300100C9438090C949B090C9416030C94160345
S11300200C9416030C9416030C9416030C941603E8
S11300300C9416030C94391F0C9416030C94160399
S11300400C94F8110C9416030C94A30F0C94D50F74
S11300500C9416030C94F7030C9416030C941603D7
S11300600C94D7200C941603000102030405060720
S11300700001020304050001020304050000000856
S1130080000201000003040700000000000000005B
S1130090010204081020408001020408102001021B
S11300A004081020040404040404040402020202E8
S11300B002020303030303030000000023002600DD
S11300C0290000000000250028002B00000000008B
S11300D0240027002A0000000000003E5B4F5B3E26
S11300E03E6B4F6B3E1C3E7C3E1C183C7E3C181CF9
S11300F0577D571C1C5E7F5E1C00183C1800FFE7F0
S1130100C3E7FF0018241800FFE7DBE7FF30483A95
S1130110060E2629792926407F050507407F0525F7
S11301203F5A3CE73C5A7F3E1C1C08081C1C3E7F7F
S113013014227F22145F5F005F5F06097F017F0046
S11301406689956A606060606094A2FFA294080466
S11301507E040810207E201008082A1C08081C2A87
S113016008081E101010100C1E0C1E0C30383E38DF
S113017030060E3E0E06000000000000005F000086
S11301800007000700147F147F14242A7F2A1223F7
S11301901308646236495620500008070300001C07
S11301A02241000041221C002A1C7F1C2A08083E10
S11301B00808008070300008080808080000606023
S11301C00020100804023E5149453E00427F400091
S11301D072494949462141494D331814127F102769
S11301E0454545393C4A49493141211109073649B8
S11301F0494936464949291E00001400000040348C
S11302000000000814224114141414140041221490
S11302100802015909063E415D594E7C1211127CB7
S11302207F494949363E414141227F4141413E7F18
S1130230494949417F090909013E414151737F08F8
S113024008087F00417F41002040413F017F08149E
S113025022417F404040407F021C027F7F040810FF
S11302607F3E4141413E7F090909063E4151215EDD
S11302707F09192946264949493203017F01033F71
S11302804040403F1F2040201F3F4038403F631400
S113029008146303047804036159494D43007F4102
S11302A041410204081020004141417F040201023F
S11302B00440404040400003070800205454784064
S11302C07F284444383844444428384444287F38F8
S11302D05454541800087E090218A4A49C787F087A
S11302E004047800447D40002040403D007F1028F5
S11302F0440000417F40007C047804787C080404B6
S1130300783844444438FC1824241818242418FC4D
S11303107C08040408485454542404043F44243CF2
S11303204040207C1C2040201C3C4030403C442861
S11303301028444C9090907C4464544C44000836FB
S11303404100000077000000413608000201020469
S1130350023C2623263C1EA1A161123A4040207A89
S113036038545455592155557941225454784221D1
S11303705554784020545579400C1E527212395508
S11303805555593954545459395554545800004505
S11303907C410002457D420001457C407D121112E2
S11303A07DF0282528F07C545545002054547C5475
S11303B07C0A097F4932494949323A4444443A3231
S11303C04A4848303A4141217A3A42402078009DD7
S11303D0A0A07D3D4242423D3D4040403D3C24FF83
S11303E02424487E4943662B2FFC2F2BFF0929F632
S11303F020C0887E090320545479410000447D4183
S11304003048484A32384040227A007A0A0A727DDB
S11304100D19317D2629292F2826292929263048F6
S11304204D4020380808080808080808382F10C864
S1130430ACBA2F102834FA00007B000008142A14E8
S11304402222142A14085500550055AA55AA55AA63
S1130450FF55FF55FF000000FF00101010FF0014AF
S11304601414FF001010FF00FF1010F010F014140B
S113047014FC001414F700FF0000FF00FF1414F430
S113048004FC141417101F10101F101F1414141F31
S113049000101010F0000000001F101010101F10AA
S11304A0101010F010000000FF10101010101010A9
S11304B01010FF10000000FF140000FF00FF0000F8
S11304C01F10170000FC04F414141710171414F46C
S11304D004F40000FF00F714141414141414F700A7
S11304E0F7141414171410101F101F141414F414F8
S11304F01010F010F000001F101F0000001F140067
S11305000000FC140000F010F01010FF10FF141491
S113051014FF141010101F00000000F010FFFFFF64
S1130520FFFFF0F0F0F0F0FFFFFF0000000000FF1D
S1130530FF0F0F0F0F0F3844443844FC4A4A4A3423
S11305407E02020606027E027E026355494163383A
S113055044443C04407E201E2006027E020299A5EB
S1130560E7A5991C2A492A1C4C7201724C304A4D49
S11305704D303048784830BC625A463D3E4949497E
S1130580007E0101017E2A2A2A2A2A44445F444427
S113059040514A444040444A51400000FF0103E0B6
S11305A080FF000008086B6B083612362436060FED
S11305B0090F06000018180000001010003040FF5A
S11305C00101001F01011E00191D1712003C3C3CD3
S11305D03C0000000000560CFB0F242011241FBE19
S11305E0CFEFD8E0DEBFCDBF13E0A0E0B1E0EEE591
S11305F0F5E402C005900D92A03EB107D9F725E0BD
S1130600A0EEB3E001C01D92AB3EB207E1F712E0E9
S1130610CEEED2E004C02197FE010E949322CB3E8D
S1130620D107C9F70E94510C0C94AD220C94000020
S1130630CF92DF92EF92FF920F931F930E94421288
S113064000911A0410911B0420911C0430911D0484
S11306506B017C01C01AD10AE20AF30A4DE2C41606
S113066041E0D406E104F104E0F020916304211197
S113067014C021E0209363040091590410915A049A
S113068020915B0430915C0400936404109365042E
S1130690209366043093670404C0213011F410924F
S11306A0630460931A0470931B0480931C04909356
S11306B01D041F910F91FF90EF90DF90CF9008954C
S11306C0CF92DF92EF92FF920F931F930E944212F8
S11306D000910E0410910F04209110043091110424
S11306E06B017C01C01AD10AE20AF30A4DE2C41676
S11306F041E0D406E104F104E8F10091060110910F
S113070007012091080130910901083E1340210599
S1130710310529F400E117E220E030E023C0009124
S1130720060110910701209108013091090100315F
S113073017422105310529F400EA16E821E030E0EA
S113074011C0009106011091070120910801309118
S11307500901003A16482140310561F408EE13E01E
S113076020E030E000930601109307012093080174
S11307703093090160930E0470930F048093100466
S1130780909311041F910F91FF90EF90DF90CF9001
S113079008950E944212609312047093130480938C
S11307A014049093150408959FB7F8942091240598
S11307B080912205213019F48DBB9FBF08958FBF0E
S11307C0089510927C00EAE7F0E0808180688083DD
S11307D08081806280838081886080838081816061
S11307E0808310927B0080818064808308951F92AF
S11307F00F920FB60F921124CF92DF92EF92FF92D5
S11308002F933F934F935F936F937F938F939F9314
S1130810AF93BF93EF93FF936091780070E080E013
S113082090E00E94780D6B017C01609378047093D2
S1130830790480937A0490937B046091790070E04A
S1130840762F6627072E000C880B990B0E947A0DD1
S1130850A70196010E94640C609378047093790454
S113086080937A0490937B0420917C00223011F1D0
S113087060F42223B9F0213079F50E94420D70937F
S113088077046093760482E01CC02330E9F02630BC
S113089019F50E94420D70937104609370041092D4
S11308A07C001AC00E94420D70936F0460936E0422
S11308B081E007C00E94420D709375046093740434
S11308C083E080937C0008C00E94420D70937304FF
S11308D06093720486E0F5CF80917A0080648093FF
S11308E07A00FF91EF91BF91AF919F918F917F918A
S11308F06F915F914F913F912F91FF90EF90DF9017
S1130900CF900F900FBE0F901F9018952091240543
S1130910222399F04FB7F89420912405213059F4FB
S11309202DB3209322053DB3209123052095232345
S11309302DBB4FBF02C0409322058CBD9DBD0895C1
S11309408EBD00000DB407FEFDCF8EB508950CB426
S113095005FC0DC09EBD00000DB407FEFDCF9EB585
S11309608EBD00000DB407FEFDCF8EB508958EBD7B
S113097000000DB407FEFDCF8EB59EBD00000DB482
S113098007FEFDCF9EB50895CF93DF93D82FC62FD2
S113099088E590E00E94860460E089E00E941413D8
S11309A08D2F0E94A0048C2F0E94A00461E089E096
S11309B00E94141380912405882321F0DF91CF91A4
S11309C00C94D403DF91CF910895CF92DF92EF92EC
S11309D0FF920E9442126B017C0180911604909157
S11309E01704A0911804B0911904A7019601281BBB
S11309F0390B4A0B5B0BDA01C9018D329140A10519
S1130A00B10508F442C080916904811104C081E0F9
S1130A108093690420C08130D1F482E0809369041A
S1130A2080E090E0A0E8BFE380930201909303018B
S1130A30A0930401B093050149E06EE170E081E107
S1130A4090E00E94C40449E06AE070E01AC0823079
S1130A50E1F41092690480E090E0A0E8BFE38093A1
S1130A60020190930301A0930401B093050149E0AE
S1130A706FEF70E081E190E00E94C40449E067E513
S1130A8070E082E190E00E94C404C0921604D09207
S1130A901704E0921804F0921904FF90EF90DF908D
S1130AA0CF90089561E08DE00E94141360E08BE024
S1130AB00E94141361E08AE00E94141360E08AE04B
S1130AC00E94141388E590E00E94860480916A04D1
S1130AD090916B04A0916C04B0916D040E94A704E2
S1130AE08091240581110E94D40361E08AE00E9470
S1130AF0141360E08BE00C9414130F931F93CF93A3
S1130B00DF930E947A0D20E030E040E85DE40E942B
S1130B10060E20E23CEB4EEB5BE40E94D00C0E94FC
S1130B20420DEB01CC0FDD1FCC0FDD1FD695C79511
S1130B30D695C7950091140110911501C02BD12BA6
S1130B40DC01CB014EE0B595A795979587954A951D
S1130B50D1F7082B192B8091610490916204092E1E
S1130B60000CAA0BBB0B80936A0490936B04A093B4
S1130B706C04B0936D040E94520580916904811144
S1130B8005C080E090E2A0E0B0E00DC0813029F41F
S1130B9082E090E2A0E0B0E006C0823061F488E632
S1130BA090E2A0E0B0E080936A0490936B04A09379
S1130BB06C04B0936D040E945205CE01A0E0B0E035
S1130BC080936A0490936B04A0936C04B0936D04B7
S1130BD00E945205C801A0E0B0E080936A0490939B
S1130BE06B04A0936C04B0936D04DF91CF911F91BB
S1130BF00F910C9452054F925F92AF92BF92CF9295
S1130C00DF92EF92FF920F931F93CF93009106010F
S1130C101091070120910801309109014090760458
S1130C2050907704B201550C880B990B3F932F9386
S1130C301F930F93A12CB12C6501A394E12CF12CEB
S1130C40870120E034E040E050E00E9443136093C9
S1130C505D0470935E0480935F049093600400913C
S1130C60060110910701209108013091090140907B
S1130C70740450907504B201550C880B990B3F9382
S1130C802F931F930F93E12CF12C870120E034E084
S1130C9040E050E00E9443136093590470935A0457
S1130CA080935B0490935C048DB79EB708960FB64F
S1130CB0F8949EBF0FBE8DBFC0916304C13009F08C
S1130CC017C160916E0470916F04072E000C880B9D
S1130CD0990B209113012F93209112012F932091AE
S1130CE011012F93209110012F93E12C14E0F12E88
S1130CF000E010E020E030E0A9010E944313DC0191
S1130D00CB01F3E0880F991FAA1FBB1FFA95D1F7F7
S1130D100F900F900F900F90009721E0A207B1055C
S1130D2018F4C093280542C0009728E0A207B10533
S1130D3058F422E02093280553E0B695A79597959B
S1130D4087955A95D1F732C0009720E4A207B105E0
S1130D5058F423E02093280546E0B695A795979587
S1130D6087954A95D1F722C00097A10521E0B207E3
S1130D7040F424E020932805892F9A2FAB2FBB271A
S1130D8015C00097A10524E0B20758F425E020938C
S1130D9028052AE0B695A795979587952A95D1F7C2
S1130DA005C085E0809328058FEF9FEF90932A0577
S1130DB0809329058091290590912A0590938700B5
S1130DC08093860080912805806180938100409102
S1130DD0590450915A0460915B0470915C048091B1
S1130DE05D0490915E04A0915F04B0916004481783
S1130DF059076A077B0724F18091590490915A049A
S1130E00A0915B04B0915C040297A105B10564F064
S1130E1080915D0490915E04A0915F04B0916004A0
S1130E200197A109B10904C081E090E0A0E0B0E01D
S1130E308093590490935A04A0935B04B0935C0488
S1130E40209168048091640490916504A0916604E3
S1130E50B0916704211115C040915D0450915E0466
S1130E6060915F047091600484179507A607B70723
S1130E7024F40196A11DB11D16C081E0809368047D
S1130E801DC02130D9F44091590450915A04609105
S1130E905B0470915C04481759076A077B0764F484
S1130EA00197A109B1098093640490936504A09308
S1130EB06604B093670402C01092680460916404ED
S1130EC07091650480916604909167040E947D0589
S1130ED08091640490916504A0916604B0916704C4
S1130EE08093550490935604A0935704B0935804E8
S1130EF08091630481112DC080915D0490915E0402
S1130F00A0915F04B09160040197A109B109809395
S1130F10590490935A04A0935B04B0935C046091C9
S1130F205D0470915E0480915F04909160040E945E
S1130F307D0580915D0490915E04A0915F04B09161
S1130F4060048093550490935604A0935704B0937F
S1130F505804CF911F910F91FF90EF90DF90CF90A5
S1130F60BF90AF905F904F9008950C94FB05E82FCD
S1130F70EF7787FD05C08EEF8E0F823008F49AC09C
S1130F808E2F90E0FC01E057FF4F2491FC01EC55BB
S1130F90FF4F3491542F5D7F5130B9F4323031F426
S1130FA050912604522B509326040FC0333031F451
S1130FB050912304522B5093230407C0343029F456
S1130FC050912004522B5093200441504230B8F4E5
S1130FD0323031F440912504422B409325040FC054
S1130FE0333031F440912204422B4093220407C051
S1130FF0343029F440911F04422B40931F04FC0118
S1131000E859FF4FA4913230C1F4B0E0AA0FBB1FDE
S1131010AD5BBB4F6D937C93ECEBF0E0A591B49189
S11310208C91809324048BE690E0909354048093F5
S1131030530480916800816033C03330C1F4B0E060
S1131040AA0FBB1FA95CBB4F6D937C93EEEBF0E042
S1131050A591B4918C91809321048CE690E09093B7
S113106054048093530480916800826019C0343022
S1131070C9F4B0E0AA0FBB1FA95DBB4F6D937C936D
S1131080E0ECF0E0A591B4918C9180931E048DE680
S113109090E090935404809353048091680084609A
S11310A080936800A0915304B0915404EC912E2BCA
S11310B02C9308959FB7F894E23099F470935004F8
S11310C060934F04E898809169008C7F8093690055
S11310D080916900482B40936900E09AE89A9FBF89
S11310E008957093520460935104E99880916900C3
S11310F0837F809369008091690024E0429FA0016E
S11311001124482B40936900E19AE99AE8CF1F9291
S11311100F920FB60F9211242F933F934F935F9327
S11311206F937F938F939F93AF93BF93EF93FF93AB
S1131130E0914F04F09150040995FF91EF91BF9114
S1131140AF919F918F917F916F915F914F913F915B
S11311502F910F900FBE0F901F9018951F920F9212
S11311600FB60F9211242F933F934F935F936F9376
S11311707F938F939F93AF93BF93EF93FF93E091EC
S11311805104F09152040995FF91EF91BF91AF91F1
S11311909F918F917F916F915F914F913F912F918B
S11311A00F900FBE0F901F9018951F920F920FB6BD
S11311B00F9211242F933F934F935F936F937F93D9
S11311C08F939F93AF93BF93CF93EF93FF9323B1E9
S11311D0C09124048091260490912504322F3095E7
S11311E093238223892B90916B00C227C923C823A0
S11311F020932404CC2351F1C0FF05C0E0914304A3
S1131200F09144040995C1FF05C0E0914504F091B3
S113121046040995C2FF05C0E0914704F0914804D3
S11312200995C3FF05C0E0914904F0914A0409956A
S1131230C4FF05C0E0914B04F0914C040995C5FF2F
S113124005C0E0914D04F0914E040995FF91EF9192
S1131250CF91BF91AF919F918F917F916F915F914A
S11312604F913F912F910F900FBE0F901F901895A3
S11312701F920F920FB60F9211242F933F934F9307
S11312805F936F937F938F939F93AF93BF93CF930A
S1131290EF93FF9326B1C091210480912304909190
S11312A02204322F309593238223892B90916C0052
S11312B0C227C923C82320932104CC2351F1C0FFA2
S11312C005C0E0913704F09138040995C1FF05C0C9
S11312D0E0913904F0913A040995C2FF05C0E09108
S11312E03B04F0913C040995C3FF05C0E0913D0423
S11312F0F0913E040995C4FF05C0E0913F04F091CC
S113130040040995C5FF05C0E0914104F0914204F1
S11313100995FF91EF91CF91BF91AF919F918F91DB
S11313207F916F915F914F913F912F910F900FBEDD
S11313300F901F9018951F920F920FB60F921124C1
S11313402F933F934F935F936F937F938F939F93C9
S1131350AF93BF93CF93EF93FF9329B1C0911E0432
S11313608091200490911F04322F3095932382237F
S1131370892B90916D00C227C923C82320931E0492
S1131380CC23C1F1C0FF05C0E0912704F0912804EB
S11313900995C1FF05C0E0912904F0912A0409953B
S11313A0C2FF05C0E0912B04F0912C040995C3FF02
S11313B005C0E0912D04F0912E040995C4FF05C0E9
S11313C0E0912F04F09130040995C5FF05C0E09128
S11313D03104F09132040995C6FF05C0E09133044D
S11313E0F09134040995C7FF05C0E0913504F091EC
S11313F036040995FF91EF91CF91BF91AF919F91E1
S11314008F917F916F915F914F913F912F910F90A9
S11314100FBE0F901F90189541E068E173E082E0E1
S11314200E94B70741E065EE74E083E00E94B707CD
S113143041E060E673E085E00E94B70741E069ECB3
S113144073E086E00C94B70721E04CE362E080EEA1
S113145093E00E94491D80EE93E00E947A1E80EE84
S113146093E00C94CF1CCF93DF93EB01682F80EEB5
S113147093E00E943319BE0180EE93E0DF91CF9197
S11314800C94391980EE93E00E94CF1C40E050E0A8
S113149060E070E080EE93E00C942D198091550487
S11314A090915604A0915704B0915804883E9340FB
S11314B0A105B105DCF0609155047091560480914A
S11314C05704909158040E947A0D20E030E04AE7D6
S11314D054E40E94D00CAB01BC0122E030E080EE69
S11314E093E00E94F6116BE273E010C04091550442
S11314F05091560460915704709158042AE030E0EA
S113150080EE93E00E94CC106CE273E080EE93E0F6
S11315100C9467108091590490915A04A0915B0433
S1131520B0915C04883E9340A105B105DCF0609164
S1131530590470915A0480915B0490915C040E9458
S11315407A0D20E030E04AE754E40E94D00CAB016D
S1131550BC0122E030E080EE93E00E94F6116BE2E1
S113156073E010C04091590450915A0460915B0497
S113157070915C042AE030E080EE93E00E94CC108D
S11315806CE273E080EE93E00C94671080915D044C
S113159090915E04A0915F04B0916004883E9340F2
S11315A0A105B105DCF060915D0470915E04809149
S11315B05F04909160040E947A0D20E030E04AE7D5
S11315C054E40E94D00CAB01BC0122E030E080EE78
S11315D093E00E94F6116BE273E010C040915D0449
S11315E050915E0460915F04709160042AE030E0E1
S11315F080EE93E00E94CC106CE273E080EE93E006
S11316000C9467100E94420A61E070E081E090E06F
S11316100E94330A40E050E060E070E080EE93E026
S11316200E942D1980916904811103C06FE273E057
S113163009C0823019F464E373E004C0813031F4EA
S113164067E373E080EE93E00E9467108091630487
S113165081111FC06BE373E080EE93E00E9467107A
S1131660409100015091010164E170E080EE93E04B
S11316700E942D1961E070E082E090E00E94330A3C
S11316800E944E0A61E070E081E090E00E94330A1B
S113169040C063E473E080EE93E00E9467106AE464
S11316A073E080EE93E00E94671060916E04709185
S11316B06F044AE050E080EE93E00E9414114091E0
S11316C000015091010164E170E080EE93E00E941A
S11316D02D1961E070E082E090E00E94330A0E94DC
S11316E04E0A61E070E081E090E00E94330A49E133
S11316F050E060E070E080EE93E00E942D190E94BB
S11317008A0A60E573E080EE93E00E9467100E940D
S1131710C60A80EE93E00C947A1E26E040E855E277
S113172060E070E08CE794E00E943A0F80910C0135
S113173090910D01A0910E01B0910F0120E1209331
S113174081001092800063E0880F991FAA1FBB1FBD
S11317506A95D1F7009721E0A207B10520F421E0B2
S11317602093280542C0009728E0A207B10558F449
S113177022E02093280553E0B695A7959795879581
S11317805A95D1F732C0009720E4A207B10558F466
S113179023E02093280546E0B695A795979587956D
S11317A04A95D1F722C00097A10521E0B20740F481
S11317B024E020932805892F9A2FAB2FBB2715C02F
S11317C00097A10524E0B20758F425E020932805EA
S11317D02AE0B695A795979587952A95D1F705C0E0
S11317E085E0809328058FEF9FEF90932A058093DF
S11317F029058091290590912A059093870080936B
S113180086008091280580618093810085EB97E0B4
S1131810909327058093260581E080936F000E94B2
S11318200C0A0E94E1030E94240A61E089E00E94FC
S1131830D81261E089E00E94141361E08AE00E94FA
S1131840D81261E08AE00E9414130E94031F49E049
S11318506FEF70E081E190E00E94C40449E06EE122
S113186070E081E190E00E94C40449E06FEF70E011
S113187081E190E00E94C40449E067E570E082E100
S113188090E00E94C40449E06AE070E082E190E0E4
S11318900E94C40449E067E570E082E190E00C94A2
S11318A0C4040E948D0B0E94020BFDCF80910A019B
S11318B090910B01909362048093610464E080EE44
S11318C093E00C94B61C5058BB27AA270E947B0CAB
S11318D00C94CC0D0E94BE0D38F00E94C50D20F072
S11318E039F49F3F19F426F40C94BB0D0EF4E095E3
S11318F0E7FB0C94B50DE92F0E94DD0D58F3BA17E0
S1131900620773078407950720F079F4A6F50C9411
S1131910FF0D0EF4E0950B2EBA2FA02D0B01B9018B
S113192090010C01CA01A0011124FF27591B99F051
S1131930593F50F4503E68F11A16F040A22F232F5D
S1131940342F4427585FF3CF469537952795A795AD
S1131950F0405395C9F77EF41F16BA0B620B730B54
S1131960840BBAF09150A1F0FF0FBB1F661F771FC5
S1131970881FC2F70EC0BA0F621F731F841F48F47A
S1131980879577956795B795F7959E3F08F0B0CF03
S11319909395880F08F09927EE0F979587950895EA
S11319A00E94E40C0C94CC0D0E94C50D58F00E94CA
S11319B0BE0D40F029F45F3F29F00C94B50D511190
S11319C00C94000E0C94BB0D0E94DD0D68F399235A
S11319D0B1F3552391F3951B550BBB27AA27621727
S11319E07307840738F09F5F5F4F220F331F441F34
S11319F0AA1FA9F335D00E2E3AF0E0E832D0915068
S1131A005040E695001CCAF72BD0FE2F29D0660F54
S1131A10771F881FBB1F261737074807AB07B0E897
S1131A2009F0BB0B802DBF01FF2793585F4F3AF09D
S1131A309E3F510578F00C94B50D0C94000E5F3F59
S1131A40E4F3983ED4F3869577956795B795F79523
S1131A509F5FC9F7880F911D9695879597F908950B
S1131A60E1E0660F771F881FBB1F621773078407A7
S1131A70BA0720F0621B730B840BBA0BEE1F88F7B6
S1131A80E09508950E94490D6894B1110C94000EDC
S1131A9008950E94E50D88F09F5798F0B92F992773
S1131AA0B751B0F0E1F0660F771F881F991F1AF045
S1131AB0BA95C9F714C0B13091F00E94FF0DB1E09E
S1131AC008950C94FF0D672F782F8827B85F39F09D
S1131AD0B93FCCF3869577956795B395D9F73EF4DE
S1131AE090958095709561957F4F8F4F9F4F089586
S1131AF0E89409C097FB3EF49095809570956195A4
S1131B007F4F8F4F9F4F9923A9F0F92F96E9BB2759
S1131B109395F695879577956795B795F111F8CFD5
S1131B20FAF4BB0F11F460FF1BC06F5F7F4F8F4F40
S1131B309F4F16C0882311F096E911C0772321F036
S1131B409EE8872F762F05C0662371F096E8862FCE
S1131B5070E060E02AF09A95660F771F881FDAF725
S1131B60880F9695879597F9089597F99F6780E868
S1131B7070E060E008959FEF80EC089500240A94DB
S1131B801616170618060906089500240A94121654
S1131B901306140605060895092E0394000C11F487
S1131BA0882352F0BB0F40F4BF2B11F460FF04C034
S1131BB06F5F7F4F8F4F9F4F089557FD9058440F8D
S1131BC0551F59F05F3F71F04795880F97FB991F98
S1131BD061F09F3F79F08795089512161306140655
S1131BE0551FF2CF4695F1DF08C0161617061806E2
S1131BF0991FF1CF86957105610508940895E894BD
S1131C00BB2766277727CB0197F908950E94190E01
S1131C100C94CC0D0E94BE0D38F00E94C50D20F02E
S1131C20952311F00C94B50D0C94BB0D11240C9458
S1131C30000E0E94DD0D70F3959FC1F3950F50E0E7
S1131C40551F629FF001729FBB27F00DB11D639F6A
S1131C50AA27F00DB11DAA1F649F6627B00DA11D10
S1131C60661F829F2227B00DA11D621F739FB00DB6
S1131C70A11D621F839FA00D611D221F749F332726
S1131C80A00D611D231F849F600D211D822F762FBF
S1131C906A2F11249F5750409AF0F1F088234AF09C
S1131CA0EE0FFF1FBB1F661F771F881F9150504008
S1131CB0A9F79E3F510580F00C94B50D0C94000ECD
S1131CC05F3FE4F3983ED4F3869577956795B7958F
S1131CD0F795E7959F5FC1F7FE2B880F911D9695A9
S1131CE0879597F90895FC01918D228D892F90E0B5
S1131CF0805C9F4F821B91098F7399270895FC0183
S1131D00918D828D981731F0828DE80FF11D858DAC
S1131D1090E008958FEF9FEF0895FC01918D828DDF
S1131D20981761F0828DDF01A80FB11D5D968C912B
S1131D30928D9F5F9F73928F90E008958FEF9FEF36
S1131D400895FC01538D448D252F30E0842F90E0BD
S1131D50821B930B541710F0CF96089501970895A2
S1131D60FC01848DDF01A80FB11DA35ABF4F2C9134
S1131D70848D90E001968F739927848FA689B78903
S1131D802C93A089B1898C9180648C93938D848DDC
S1131D90981306C00288F389E02D80818F7D8083AB
S1131DA00895EF92FF920F931F93CF93DF93EC016B
S1131DB081E0888F9B8D8C8D981305C0E889F98903
S1131DC0808185FD24C0F62E0B8D10E00F5F1F4F20
S1131DD00F731127E02E8C8DE8120CC00FB607FC90
S1131DE0FACFE889F989808185FFF5CFCE010E9479
S1131DF0B00EF1CF8B8DFE01E80FF11DE35AFF4FBA
S1131E00F0820B8FEA89FB898081806207C0EE89AA
S1131E10FF896083E889F98980818064808381E017
S1131E2090E0DF91CF911F910F91FF90EF90089573
S1131E30CF93DF93EC01888D8823C9F0EA89FB896D
S1131E40808185FD05C0A889B9898C9186FD0FC064
S1131E500FB607FCF5CF808185FFF2CFA889B98939
S1131E608C9185FFEDCFCE010E94B00EE7CFDF91BC
S1131E70CF910895CF92DF92EF92FF921F93CF9369
S1131E80DF93EC016A017B01122FE889F98982E072
S1131E9080834115514E61057105B1F060E079E030
S1131EA08DE390E0A70196010E944722DA01C9015F
S1131EB00197A109B109B695A795979587959C01B6
S1131EC0211580E13807A8F0E889F989108260E8D3
S1131ED074E88EE190E0A70196010E944722DA019E
S1131EE0C9010197A109B109B695A7959795879559
S1131EF09C01EC85FD853083EE85FF852083188E5B
S1131F00EC89FD891083EA89FB8980818061808363
S1131F10EA89FB89808188608083EA89FB898081E2
S1131F2080688083EA89FB8980818F7D8083DF914B
S1131F30CF911F91FF90EF90DF90CF90089580E0B4
S1131F4090E0089508951F920F920FB60F921124F6
S1131F502F938F939F93EF93FF93E0918C04F091D1
S1131F608D048081E0919204F091930482FD12C06B
S1131F709081809195048F5F8F73209196048217CE
S1131F8051F0E0919504F0E0E458FB4F958F809375
S1131F90950401C08081FF91EF919F918F912F91C2
S1131FA00F900FBE0F901F9018951F920F920FB6AF
S1131FB00F9211242F933F934F935F936F937F93CB
S1131FC08F939F93AF93BF93EF93FF938CE794E02A
S1131FD00E94B00EFF91EF91BF91AF919F918F91AD
S1131FE07F916F915F914F913F912F910F900FBE11
S1131FF00F901F901895ECE7F4E01382128288EE9C
S113200093E0A0E0B0E084839583A683B78389E559
S113201093E09183808385EC90E09587848784ECBA
S113202090E09787868780EC90E0918B808B81ECA1
S113203090E0938B828B82EC90E0958B848B86EC82
S113204090E0978B868B118E128E138E148E0895CA
S1132050CF92DF92EF92FF920F931F93CF93DF9370
S11320606C017A018B01C0E0D0E0CE15DF0581F070
S1132070D8016D918D01D601ED91FC910190F08113
S1132080E02DC6010995892B11F02196EECF7E0132
S1132090C701DF91CF911F910F91FF90EF90DF90D7
S11320A0CF9008956115710579F0FB01019000202E
S11320B0E9F73197AF01461B570BDC01ED91FC9119
S11320C00280F381E02D099480E090E008950C945F
S11320D05210DC01ED91FC910190F081E02D099406
S11320E08F929F92AF92BF92EF92FF920F931F93A2
S11320F0CF93DF93CDB7DEB7A1970FB6F894DEBFC9
S11321000FBECDBF7C01FA01CB0119A2223008F425
S11321102AE08E010F5D1F4F822E912CA12CB12C31
S1132120BF01A50194010E944722F901CA0101508F
S113213011096A3010F4605D01C0695CD8016C93C8
S1132140232B242B252B61F7B801C7010E945210C1
S1132150A1960FB6F894DEBF0FBECDBFDF91CF912D
S11321601F910F91FF90EF90BF90AF909F908F9031
S113217008952115310541F4DC01ED91FC910190A4
S1132180F081E02D642F09940C9470109A01AB0136
S113219060E070E00C94B910CF92DF92EF92FF925E
S11321A00F931F93CF93DF932115310581F4DC0145
S11321B0ED91FC910190F081E02D642FDF91CF919E
S11321C01F910F91FF90EF90DF90CF9009942A30E8
S11321D0310501F577FF1DC06A017B01EC016DE259
S11321E00E9469108C0144275527BA014C195D09D6
S11321F06E097F092AE0CE010E947010800F911FA2
S1132200DF91CF911F910F91FF90EF90DF90CF90CE
S113221008952AE0DF91CF911F910F91FF90EF90E5
S1132220DF90CF900C9470109A01AB01770F660B7E
S1132230770B0C94CC107F928F929F92AF92BF92A7
S1132240CF92DF92EF92FF920F931F93CF93DF937E
S11322508C016A017B01722E9A01AB01C701B601A0
S11322600E943222882319F06AE673E027C04601EF
S11322705701E894B7F82FEF3FEF4FE75FE7C50149
S1132280B4010E94322281110DC02FEF3FEF4FE7BE
S11322905FE7C501B4010E94042218161CF46EE61F
S11322A073E00CC02FEF3FEF4FE75FE4C701B601C7
S11322B00E942D22181694F462E773E0C801DF919E
S11322C0CF911F910F91FF90EF90DF90CF90BF902F
S11322D0AF909F908F907F900C9452102FEF3FEF10
S11322E04FE75FECC701B6010E94042287FDE4CFEB
S11322F020E030E0A901C701B6010E94042287FF53
S11323000AC06DE2C8010E946910EC01F7FAF0946A
S1132310F7F8F09402C0C0E0D0E0B12C60E070E0C7
S113232080E09FE37B1441F020E030E040E251E4A0
S11323300E94D00CB394F6CFA70196010E94640CBE
S11323406B017C010E94490D4B015C012AE0AB0149
S1132350BC01C8010E947010C80FD91F7720B9F1C1
S1132360C501B4010E94780D9B01AC01C701B601FF
S11323700E94630C6B017C016EE2C8010E9469102B
S1132380C80FD91F20E030E040E251E4C701B60194
S11323900E94060E4B015C010E94490D6B017C01F9
S11323A04AE050E0C8010E94C610C80FD91FB60108
S11323B080E090E00E94780D9B01AC01C501B4015E
S11323C00E94630C6B017C017A947110DBCFCE0107
S11323D0DF91CF911F910F91FF90EF90DF90CF90FD
S11323E0BF90AF909F908F907F9008950C941B1195
S11323F01F920F920FB60F9211242F933F938F9336
S11324009F93AF93BF9380911A0590911B05A09160
S11324101C05B0911D053091190523E0230F2D37BC
S113242020F40196A11DB11D05C026E8230F0296D4
S1132430A11DB11D2093190580931A0590931B05C6
S1132440A0931C05B0931D0580911E0590911F0556
S1132450A0912005B09121050196A11DB11D809385
S11324601E0590931F05A0932005B0932105BF91ED
S1132470AF919F918F913F912F910F900FBE0F902D
S11324801F9018952FB7F89460911A0570911B0549
S113249080911C0590911D052FBF08953FB7F894B6
S11324A080911E0590911F05A0912005B0912105F2
S11324B026B5A89B05C02F3F19F00196A11DB11D9B
S11324C03FBFBA2FA92F982F8827820F911DA11DD6
S11324D0B11DBC01CD0142E0660F771F881F991F13
S11324E04A95D1F708958F929F92AF92BF92CF925F
S11324F0DF92EF92FF926B017C010E944E124B011E
S11325005C01C114D104E104F10401F10E942A2008
S11325100E944E12DC01CB0188199909AA09BB0952
S1132520883E9340A105B10560F321E0C21AD108A9
S1132530E108F10888EE880E83E0981EA11CB11C06
S1132540C114D104E104F10419F7DBCFFF90EF903B
S1132550DF90CF90BF90AF909F908F90089583307D
S113256081F028F4813099F08230A1F00895873009
S1132570A9F08830B9F08430D1F4809180008F7D47
S113258003C0809180008F7780938000089584B584
S11325908F7702C084B58F7D84BD08958091B0008B
S11325A08F7703C08091B0008F7D8093B000089531
S11325B0CF93DF9390E0FC01E057FF4F2491FC019F
S11325C0EC55FF4F8491882361F190E0880F991FA7
S11325D0FC01E453FF4FC591D491FC01EE53FF4F2E
S11325E0A591B491611109C09FB7F8948881209591
S11325F082238883EC912E230BC0623061F49FB751
S1132600F8948881322F309583238883EC912E2B84
S11326102C939FBF06C08FB7F894E8812E2B288394
S11326208FBFDF91CF9108951F93CF93DF93282F0E
S113263030E0F901E458FF4F8491F901E057FF4F6E
S1132640D491F901EC55FF4FC491CC23C1F0162F5E
S113265081110E94AF12EC2FF0E0EE0FFF1FEE533A
S1132660FF4FA591B4919FB7F894111104C08C91B8
S1132670D095D82302C0EC91DE2BDC939FBFDF9171
S1132680CF911F9108954F925F926F927F92AF9274
S1132690BF92CF92DF92EF92FF920F931F93CF934B
S11326A0DF93CDB7DEB729013A019B01AC012419B0
S11326B035094609570989899A89AB89BC89BC01BE
S11326C0CD016A197B098C099D090E943722A80152
S11326D0970124193509460957090E946922CA013C
S11326E0B9016A0D7B1D8C1D9D1DDF91CF911F913A
S11326F00F91FF90EF90DF90CF90BF90AF907F90BD
S11327006F905F904F9008952F923F924F925F92F7
S11327106F927F928F929F92AF92BF92CF92DF92ED
S1132720EF92FF920F931F93CF93DF9300D000D0CB
S113273000D0CDB7DEB72C017E836D836A015901C9
S1132740C801FC82EB824801841A950A97FE03C0F3
S113275091948194910835012D813E81621A730A06
S113276077FE03C0719461947108681479045CF471
S11327703A2D2B2D5C01832F922F3D812E81DE82F9
S1132780CD82C32ED22EAD81BE81AA16BB065CF4C7
S11327903C2D2D2D6C01832F922F3D812E81BE82E5
S11327A0AD82A32EB22E85012D813E81021B130B17
S11327B01C012C183D0837FE03C0319421943108C4
S11327C0780117FF03C03FEFE31AF30AF594E79487
S11327D0C816D9062CF08FEF9FEF9A83898304C023
S11327E0A1E0B0E0BA83A9832D813E81A216B3068D
S11327F024F1D201ED91FC910484F585E02D2B8127
S11328003C816814790424F44D815E81B60103C0CF
S1132810A6016D817E81C2010995E218F308F7FED5
S113282006C029813A81C20ED31EE00EF11E8D81AD
S11328309E8101969E838D83D7CF26960FB6F894FA
S1132840DEBF0FBECDBFDF91CF911F910F91FF90DF
S1132850EF90DF90CF90BF90AF909F908F907F903C
S11328606F905F904F903F902F900895DC01ED9111
S1132870FC910084F185E02D09940F931F93DC01F2
S1132880ED91FC91048CF58DE02D09951F910F912C
S113289008950F931F93DC01ED91FC91068CF78D45
S11328A0E02D09951F910F910895EF92FF920F93D8
S11328B01F93DC01ED91FC9100A0F1A1E02D09959D
S11328C01F910F91FF90EF90089508958F929F921A
S11328D0AF92BF92CF92DF92EF92FF920F931F932A
S11328E0CF93DF93EC015B014A0169017801E88130
S11328F0F9810284F385E02D0995C80CD91C860161
S113290001501109E881F9810488F589E02D9501C8
S1132910A401B501CE010995E881F9810688F789FA
S1132920E02DCE01DF91CF911F910F91FF90EF9099
S1132930DF90CF90BF90AF909F908F9009948F922B
S11329409F92AF92BF92CF92DF92EF92FF920F933A
S11329501F93CF93DF93EC015B014A016901E88186
S1132960F9810284F385E02D099595012C0D3D1D17
S113297021503109E881F9810488F589E02D780135
S11329808401A401B501CE010995E881F981068885
S1132990F789E02DCE01DF91CF911F910F91FF9028
S11329A0EF90DF90CF90BF90AF909F908F9009945D
S11329B04F925F926F927F928F929F92AF92BF924B
S11329C0CF92DF92EF92FF920F931F93CF93DF93F7
S11329D06C012B015A0139014801DC01ED91FC9194
S11329E00284F385E02D0995E201640C751CD6017F
S11329F0ED91FC91C615D7055CF40088F189E02DB2
S1132A0087019401A501BE01C60109952196EFCF66
S1132A100688F789E02DC601DF91CF911F910F91B0
S1132A20FF90EF90DF90CF90BF90AF909F908F90EA
S1132A307F906F905F904F900994EF92FF920F9365
S1132A401F93DC011A960D911C911B9718962D91DA
S1132A503C911997ED91FC9100A0F1A1E02D7B012F
S1132A6040E050E060E070E009951F910F91FF9005
S1132A70EF9008958F929F92AF92BF92CF92DF9280
S1132A80EF92FF920F931F93CF93DF934C016B014F
S1132A905A01E901DC01ED91FC916217730781F49D
S1132AA00417150724F48B2D5801042F182F0A1925
S1132AB01B0998012F5F3F4F048CF58DE02D12C048
S1132AC04017510709F52617370724F48D2D69019E
S1132AD0C62FD82F9E012C193D092F5F3F4F068C1E
S1132AE0F78DE02D8701A501B601C4010995DF9199
S1132AF0CF911F910F91FF90EF90DF90CF90BF90F7
S1132B00AF909F908F9008950284F385E02D0995EE
S1132B10D401ED91FC910488F589E02D9E01A50175
S1132B20B601C4010995D401ED91FC910688F78999
S1132B30E02DC401DF91CF911F910F91FF90EF9091
S1132B40DF90CF90BF90AF909F908F9009946F9239
S1132B507F928F929F92AF92BF92CF92DF92EF9229
S1132B60FF920F931F93CF93DF93EC014B015A0114
S1132B7069013801E881F9810284F385E02D099522
S1132B80E881F9810288F389E02D87019601A50186
S1132B90B401CE010995A501460D571D41505109B7
S1132BA0E881F9810288F389E02D9601B401CE0110
S1132BB00995E881F9810088F189E02D9301A50147
S1132BC0B401CE010995C80CD91CB6016150710934
S1132BD0E881F9810088F189E02D9301A501CE01F6
S1132BE00995E881F9810688F789E02DCE01DF9106
S1132BF0CF911F910F91FF90EF90DF90CF90BF90F6
S1132C00AF909F908F907F906F9009940895FC01EE
S1132C106370658B8481958126813781613039F0B9
S1132C20633029F09187808733872287089531871D
S1132C302087938782870895FC01138212828AE792
S1132C4093E091838083758364835783468371877C
S1132C50608753874287158A1586148617861686D9
S1132C6081E0848B2FEF3FEF338B228B318B208BD2
S1132C70868B178A118E108E08952F923F924F9251
S1132C805F926F927F928F929F92AF92BF92CF92F8
S1132C90DF92EF92FF920F931F93CF93DF93CDB701
S1132CA0DEB76B970FB6F894DEBF0FBECDBF9B8F18
S1132CB08A8F5B011A01D22E1F830E833701C982CA
S1132CC0DC0158962D913C9159972115310509F055
S1132CD0E6C018968D919C911997681779070CF0A6
S1132CE0CDC11A968D919C911B97481759070CF0EA
S1132CF0C5C18C2C912CFB0126E0C29EE00DF11D78
S1132D001124FB87EA871E161F060CF0B7C1A40125
S1132D1083E0440F551F8A95E1F75D874C87CA010C
S1132D20820D931D181619060CF0A8C157968C91A4
S1132D30811104C05FEA5D1508F4D394AA8DBB8D9C
S1132D40ED91FC9111970284F385E02DCD01099555
S1132D50B5E0DB9EC0011124F5013596FF87EE87AF
S1132D602501BB82AA829C012A193B09398B288B35
S1132D70A101485F5F4F5B8B4A8BE889F989E40DB9
S1132D80F51DEA52FF4F549158873D822C82610110
S1132D90888580FF13C0AA8DBB8DED91FC91B9810C
S1132DA0B13031F40484F585E02D2E813F8116C0C5
S1132DB00684F785E02DEE80FF801AC0EE81FF8146
S1132DC0E615F705F1F0AA8DBB8DED91FC91B98163
S1132DD0B13051F40484F585E02D9301A601B201CC
S1132DE08A8D9B8D09950DC00684F785E02D7301AE
S1132DF0840194014C815D816A817B818A8D9B8DE4
S1132E000995E885E695E8872C813D81280D391DD3
S1132E103D832C833FEFC31AD30A4A895B89C416C6
S1132E20D50609F0B5CF8A819B81880D991D9B83B6
S1132E308A839FEF491A590AAE85BF854A165B06F5
S1132E4009F09BCFEE81FF81E615F70509F4F4C084
S1132E50EA8DFB8DA081B181F981F13079F4B5015E
S1132E606B5F7F4F5096ED91FC915197830128E061
S1132E7030E0A1018A8D9B8D0995DEC06A857B8532
S1132E80681979091E96ED91FC911F9773010C85C1
S1132E901D859401A1018A8D9B8D0995CDC0F901F1
S1132EA03496E491DE1AF901329685919491B7E053
S1132EB0DB9E800D911D1124F901259134913B8BEA
S1132EC02A8BFC01259134912901FC013296C4908E
S1132ED0319634913C87329614913196D49049813D
S1132EE0423058F0612E012E000C77088D2D0D2CE8
S1132EF0000C990B9987888704C019861886612C61
S1132F00712CAA8DBB8DED91FC9111970284F385F0
S1132F10E02DCD010995B9818B2E912C689CC001BF
S1132F20699C900D789C900D1124FC01EA0DFB1D09
S1132F30F98BE88B1A82712C612CE12F110FFF0B96
S1132F4095012E0F3F1F3B872A87AC0CB11CA501AE
S1132F504E0F5F1F5F8B4E8BC1018D0D911DD7FCF2
S1132F609A95998F888F9C85691608F065C0862D7F
S1132F7090E048855985480F591F489D9001499D07
S1132F80300D589D300D1124D101A20FB31FBF87FE
S1132F90AE87AA84BB84E889F989FD83EC83DA804F
S1132FA0FA85DF1A288D398D280F391F3D8B2C8B1C
S1132FB08D2D8A0D4E895F89A416B506C1F18770DF
S1132FC041F4C2010196EA89FB89E40DF51D749070
S1132FD02C0177FE21C0AA8DBB8DED91FC91B981A6
S1132FE0B13061F40484F585E02D2E813F814C8954
S1132FF05D89B5018A8D9B8D09950EC00684F78580
S1133000E02DEE80FF80840194014E855F856C8104
S11330107D818A8D9B8D0995770CEC81FD81E80D6E
S1133020F91DFD83EC83FFEFAF1ABF0AC1CF2A81DC
S11330302C0D2A83639497CFAA8DBB8DED91FC91BF
S113304011970688F789E02DCD016B960FB6F89499
S1133050DEBF0FBECDBFDF91CF911F910F91FF90C7
S1133060EF90DF90CF90BF90AF909F908F907F9024
S11330706F905F904F903F902F9009946B960FB68E
S1133080F894DEBF0FBECDBFDF91CF911F910F919A
S1133090FF90EF90DF90CF90BF90AF909F908F9074
S11330A07F906F905F904F903F902F900895AF92D4
S11330B0BF92CF92EF92FF920F931F93CF93DF9320
S11330C0EC01262F888D998D009709F040C06A3055
S11330D059F41D861C862C898E859F8538E0239F94
S11330E0800D911D112441C06D3009F4AAC08E8950
S11330F08823C1F03C898C859D8546E0349F800DF2
S1133100911D112448855985481759075CF41D867B
S11331101C868E859F8548E0349F800D911D112467
S11331209F878E87EA88FB88088919894E855F8581
S11331306C857D85CC88CE010E943D162C898C85BA
S11331409D8536E0239F800D911D112442C06A3075
S113315079F41D861C862C89FC013696E4918E85B3
S11331609F852E9F800D911D11249F878E8769C096
S11331706D3009F466C0FC0134963491631708F489
S113318060C03196E491E61708F45BC0FC01329606
S113319065917491422F50E0431B510937E0349FED
S11331A05001359FB00C1124A60EB71EF5013296BE
S11331B034913196E491332311F0E1110DC0F501FE
S11331C03496E4912C898C859D85E29F800D911D18
S11331D011249D878C8735C0F501359644915E890D
S11331E0552311F16C89E32FF0E0E40FF11D47FD45
S11331F0FA956E9FD0016F9FB00D11244C855D85AB
S11332004A0F5B1FE885F985E417F5076CF41D8602
S11332101C86FC013696E4918E859F856E9F800DF9
S1133220911D11249F878E87EA88FB880889198954
S11332304E855F856C857D85CC88CE010E943D16C8
S1133240BECF81E090E0DF91CF911F910F91FF906D
S1133250EF90CF90BF90AF900895FC01758764877D
S1133260578746870895611101C061E0FC01648BB2
S11332700895FC01738B628B718B608B0895FC0144
S113328085890895FC01808591850895FC018285D6
S1133290938508950F931F93CF93DF93DC01FB0174
S11332A055968C915597823089F0833021F1813085
S11332B009F0E7C014968D919C911597BC01641B8D
S11332C0750BAB0141505109BF011DC014966D919E
S11332D07C911597CB018E1B9F0BFC0116968D914B
S11332E09C911797BC01641B750BAB0141505109AC
S11332F0E21BF30BC6C016966D917C9117976E1B5B
S11333007F0B621B730B57FD1BC114968D919C910F
S11333101597481759070CF013C177FF04C0260FFF
S1133320371F60E070E016968D919C911797FB0112
S1133330E20FF31F8E179F071CF49C01261B370B0B
S1133340121613060CF0FCC0A22F862F86958695C4
S1133350869590E8899F400D511D1124FA01EA5D7C
S1133360FE4F6770A9F198E0961B492F50E0EA01DF
S1133370C25EDE4F8881291790F4421B51092FEF5A
S113338030E002C0359527954A95E2F78223013053
S1133390110541F068F00230110589F0D1C0013007
S11333A0110519F42081822B0CC00130110520F481
S11333B080952081822305C00230110531F42081DB
S11333C082278083A91708F4BBC0A91BE058FF4FCC
S11333D0A83048F10230110559F4EF018A2F988181
S11333E090959883C058DF4F88508830C0F733C019
S11333F081E00130110509F080E08195EF019A2FF9
S11334008883C058DF4F98509830D0F788EF8A0FE0
S113341086958695869560E8869FE00DF11D1124BA
S1133420E058FF4FA770AA2309F48AC0B0E0AA5E4F
S1133430BE4F8C910130110531F040F0023011057E
S113344009F07EC01BC09081892B03C080959081B8
S11334508923808375C088EF8A0F86958695869523
S113346070E8879FE00DF11D1124E058FF4FA7700D
S113347009F466C0B0E0AA5EBE4F8C9190818927A2
S1133480E8CF57FD5DC016968D919C91179748170C
S113349059070CF055C0F7FF04C02E0F3F1FE0E0A2
S11334A0F0E014968D919C911597BF01620F731FE4
S11334B0861797071CF49C012E1B3F0B121613064C
S11334C00CF03EC0CA0157FD079663E095958795B9
S11334D06A95E1F79695982F882797958795E80F31
S11334E0F91FEA5DFE4F4770552781E090E001C067
S11334F0880F4A95EAF7482F0130110539F078F022
S113350002301105E9F42E0F3F1F13C02E0F3F1F89
S1133510E217F307A9F08081842B8193F9CF80957A
S11335202E0F3F1FE217F30759F0908198239193D0
S1133530F9CFE217F30721F0808184278193F9CF33
S1133540DF91CF911F910F9108950F931F93CF9304
S1133550DF93DC0155968C915597823071F083305E
S113356009F1813009F08CC01496ED91FC91159706
S1133570E41BF50BE21BF30B20C01496ED91FC91B8
S11335801597CF01861B970BBC01615071091696E4
S1133590ED91FC911797CF01841B950BAC01421B55
S11335A0530B6EC01696ED91FC911797CF01861BB5
S11335B0970BBC0161507109FA0177FD1BC1169686
S11335C08D919C911797681779070CF013C1F7FF39
S11335D004C02E0F3F1FE0E0F0E014968D919C9103
S11335E01597AF01420F531F841795071CF49C01D4
S11335F02E1B3F0B121613060CF0FCC0CB0177FDFB
S1133600079643E0959587954A95E1F79695982F07
S1133610882797958795E80FF91FEA5DFE4F677035
S1133620772781E090E001C0880F6A95EAF7482F78
S11336300130110541F088F00230110509F0DAC0BB
S11336402E0F3F1F15C02E0F3F1FE217F30709F47B
S1133650D1C08081842B8193F8CF80952E0F3F1F9A
S1133660E217F30709F4C6C0908198239193F8CF29
S1133670E217F30709F4BEC0808184278193F8CF51
S113368077FDB8C014968D919C91159768177907AA
S11336900CF0B0C057FF04C0240F351F40E050E0C9
S11336A016968D919C911797FA01E20FF31F8E17CE
S11336B09F071CF49C01241B350B121613060CF0F7
S11336C099C0A22F842F86958695869590E8899F28
S11336D0600D711D1124FB01EA5DFE4F4770A9F1D5
S11336E098E0941B492F50E0EA01C25EDE4F8881C6
S11336F0291790F4421B51092FEF30E002C0359591
S113370027954A95E2F782230130110541F068F0CC
S11337100230110589F06EC00130110519F42081C1
S1133720822B0CC00130110520F480952081822366
S113373005C00230110531F4208182278083A91746
S113374008F458C0A91BE058FF4FA83048F10230D4
S1133750110559F4EF018A2F988190959883C058E8
S1133760DF4F88508830C0F730C081E00130110548
S113377009F080E08195EF019A2F8883C058DF4FCC
S113378098509830D0F788EF8A0F8695869586955D
S113379090E8899FE00DF11D1124E058FF4FA770B8
S11337A0AA2341F1B0E0AA5EBE4F8C91013011050D
S11337B029F038F002301105E9F419C09081892B01
S11337C018C080959081892314C088EF8A0F86954C
S11337D08695869590E8899FE00DF11D1124E058A7
S11337E0FF4FA77039F0B0E0AA5EBE4F8C91908174
S11337F089278083DF91CF911F910F910895CF92F4
S1133800DF92EF92FF920F931F93CF93DF937C018C
S11338108B01EA01690177FDA0C00E9442190817D3
S113382019070CF09AC0D7FD98C0C7010E94461929
S1133830C817D9070CF091C0C7010E943F19823004
S113384009F07FC0F701848195819C01201B310B15
S113385089010150110986819781FC01EC1BFD0B44
S1133860EF0121970BC0813049F4F70184819581E0
S11338708C1B9D0BE8018C0101501109F1E0CF165E
S1133880D10431F010F132E0C316D104E1F165C086
S1133890FE01D7FD379643E0F595E7954A95E1F7A4
S11338A0F695FE2FEE27F795E7950E0F1F1FF801EB
S11338B0EA5DFE4FC770DD2781E090E001C0880F0C
S11338C0CA95EAF79081892B3AC0FE01D7FD379655
S11338D023E0F595E7952A95E1F7F695FE2FEE2777
S11338E0F795E7950E0F1F1FF801EA5DFE4FC770AD
S11338F0DD2781E090E001C0880FCA95EAF7809542
S1133900908189231CC0FE01D7FD379683E0F5958D
S1133910E7958A95E1F7F695FE2FEE27F795E7955B
S11339200E0F1F1FF801EA5DFE4FC770DD2781E00F
S113393090E001C0880FCA95EAF7908189278083B7
S11339400CC0833009F08FCFF70186819781801BEB
S1133950910B8E01EC01219791CFDF91CF911F91B3
S11339600F91FF90EF90DF90CF9008951F93CF9326
S1133970DF93EC01162F40E250E060E870E00E9413
S11339801C1686EA93E0998388838FEF8C8F88A333
S11339908E8F8D8F1F8FDF91CF911F91089580E0BF
S11339A092E0E6E2F1E0DF019C011D9221503040FB
S11339B0E1F70895FC0181A1882339F06EBD000070
S11339C00DB407FEFDCF8EB5089528E030E090E8F1
S11339D0A4A1B5A14C9183A5809584238C93A2A125
S11339E0B3A182A5462F492319F04C91842B03C01F
S11339F04C91809584238C93A4A1B5A14C9183A56B
S1133A00842B8C9396952150310911F708951F93B7
S1133A10CF93DF93EC01162F8C8D8F3F09F1EEA12C
S1133A20FFA190818CA5892B8083E8A5F9A59081BD
S1133A308DA5809589238083EEA1FFA190818CA51B
S1133A40809589238083CE010E94DA1CEEA1FFA118
S1133A5090818CA5892B8083DF91CF911F9108954C
S1133A606A8D062E000C770B8BE295E00E940C20E9
S1133A7060E08BE295E00E94B91F612F8BE295E034
S1133A800E94B91F8BE295E0DF91CF911F910C94B6
S1133A9021200F931F93CF93DF93EC01162F022F56
S1133AA06B8F4A8F8C8D8F3F09F48CC061E08E8DB3
S1133AB00E94D81261E088A10E94D81288A1082E21
S1133AC0000C990BFC01EC55FF4FE491F0E0EE0F74
S1133AD0FF1FEE53FF4F259134913FA32EA3FC010A
S1133AE0E057FF4FE491ECA78E8D082E000C990B44
S1133AF0FC01EC55FF4FE491F0E0EE0FFF1FEE5395
S1133B00FF4F2591349139A728A7FC01E057FF4FB7
S1133B10E491EDA789A1811134C061E08C8D0E94EC
S1133B20D81261E08D8D0E94D8128D8D082E000C64
S1133B30990BFC01EC55FF4FE491F0E0EE0FFF1FF1
S1133B40EE53FF4F259134913DA32CA3FC01E05784
S1133B50FF4FE491EBA78C8D082E000C990BFC0110
S1133B60EC55FF4FE491F0E0EE0FFF1FEE53FF4FD3
S1133B70259134913BA32AA3FC01E057FF4FE49124
S1133B80EAA789A1882311F10E94031F80912405CB
S1133B90882399F02FB7F89480912405813059F443
S1133BA08DB3809322059DB380912305809589234D
S1133BB08DBB2FBF02C02093220580E58CBD81E020
S1133BC08DBD04C08BE295E00E94F81F0023F1F044
S1133BD08F8D87FD1BC061E00E94D81261E08F8D3C
S1133BE00E94141361E070E080E090E00E94731280
S1133BF060E08F8D0E9414136AE070E080E090E032
S1133C000E94731261E08F8D0E9414136EEACE013C
S1133C100E94071D65EDCE010E94071D60E8CE01DC
S1133C200E94071D68EACE010E94071D6FE1CE01C4
S1133C300E94071D63EDCE010E94071D60E0CE01C6
S1133C400E94071D60E4CE010E94071D6DE8CE01AD
S1133C500E94071D113011F460E101C064E1CE013E
S1133C600E94071D60E2CE010E94071D60E0CE01A4
S1133C700E94071D61EACE010E94071D68ECCE0177
S1133C800E94071D6AEDCE010E94071D62E0CE016D
S1133C900E94071D61E8CE010E94071D6FE8CE0156
S1133CA00E94071D69EDCE010E94071D113011F419
S1133CB062E201C061EFCE010E94071D6BEDCE01EF
S1133CC00E94071D60E4CE010E94071D64EACE0134
S1133CD00E94071D66EACE010E94071D6EE2CE0116
S1133CE00E94071D6FEACE01DF91CF911F910F91C2
S1133CF00C94071DAF92BF92CF92DF92EF92FF9286
S1133D000F931F93CF93DF93EC0161E20E94071D91
S1133D1060E0CE010E94071D6FE7CE010E94071DDF
S1133D2062E2CE010E94071D60E0CE010E94071DE1
S1133D3063E0CE010E94071D8C8D8F3F49F1EEA1F7
S1133D40FFA190818CA5892B8083E8A5F9A590819A
S1133D508DA5892B8083EEA1FFA190818CA58095F0
S1133D608923808306E211E026E2E22E23E0F22E8C
S1133D70F80161918F01CE010E94DA1CE016F10670
S1133D80B9F7EEA1FFA190818CA5892B808330C067
S1133D90E090B8008CE08093B80006E211E096E26F
S1133DA0C92E93E0D92E6A8D062E000C770B8BE278
S1133DB095E00E940C2060E48BE295E00E94B91F1C
S1133DC0580180E1F82EF50161915F018BE295E0E5
S1133DD00E94B91FFA94F110F6CF8BE295E00E948D
S1133DE02120005F1F4FC016D106E9F6E092B8000B
S1133DF0DF91CF911F910F91FF90EF90DF90CF90C3
S1133E00BF90AF900895CF93CFB7F89480912505D4
S1133E10811127C0EEEAF0E08491EAE9F0E09491A0
S1133E20E82FF0E0EE0FFF1FE453FF4FA591B4918C
S1133E30EC91E92321F461E08AE00E94141361E02B
S1133E408AE00E94D8128CB580618CBD8CB58064E8
S1133E508CBD61E08DE00E94D81261E08BE00E948D
S1133E60D812809125058F5F80932505CFBFCF9110
S1133E7008951F920F920FB60F9211242F933F9320
S1133E804F935F936F937F938F939F93AF93BF935E
S1133E90EF93FF93E0912605F09127050995FF9193
S1133EA0EF91BF91AF919F918F917F916F915F91AE
S1133EB04F913F912F910F900FBE0F901F90189527
S1133EC080915B0590E020915C05821B9109089527
S1133ED090915C0580915B05981750F4E92FF0E010
S1133EE0E35AFA4F208130E09F5F90935C0502C053
S1133EF02FEF3FEFC9010895E0915C0580915B05C8
S1133F00E81730F4F0E0E35AFA4F808190E0089526
S1133F108FEF9FEF08950895CF92DF92EF92FF9273
S1133F200F931F93CF93DF937C01CB018A012091E0
S1133F303705222389F0EB016B01C40ED51ECC1585
S1133F40DD0569F06991D701ED91FC910190F08153
S1133F50E02DC7010995F3CF642F0E949F20C8016B
S1133F60DF91CF911F910F91FF90EF90DF90CF9051
S1133F700895CF93DF931F92CDB7DEB76983209165
S1133F8037052223D1F020913805203240F021E07A
S1133F9030E0FC013383228380E090E015C08091FF
S1133FA03905E82FF0E0E65CFA4F998190838F5F42
S1133FB0809339058093380505C061E0CE010196F0
S1133FC00E949F2081E090E00F90DF91CF910895AF
S1133FD0FC011382128288EE93E0A0E0B0E08483B7
S1133FE09583A683B78382ED93E0918380830895BC
S1133FF010925C0510925B051092390510923805F9
S11340000C942B2081E08093370560935A0510921D
S113401039051092380508950C9402200F93062F49
S113402021E0409138056AE375E080915A050E94C9
S113403049201092390510923805109237050F91D6
S1134040089561E00C940E208BE295E00C94E81F37
S11340500E94A82208951092EA0581E08093E80561
S11340601092E70561E082E10E94141361E083E1AC
S11340700E941413E9EBF0E080818E7F80838081BD
S11340808D7F808388E48093B80085E48093BC00AE
S113409008950F93413208F04AC09091EA059111B6
S11340A0FCCF32E03093EA050093E8053FEF30930C
S11340B07D051092C2054093C105562FA3ECB5E0CF
S11340C0FB013E2F351B341718F431913D93F9CF82
S11340D01092E9053091E905880F832B8093E90557
S11340E08091E705813061F41092E7058091E9053C
S11340F08093BB008091BC0083FDF8CF85EC01C0A8
S113410085EE8093BC00222321F08091EA05823061
S1134110D1F380917D058F3F79F080917D058032C8
S113412041F080917D05803331F094E005C091E049
S113413003C092E001C093E0892F0F91089540914C
S11341409F05262F30E0240F311D21323105DCF488
S11341502091EA052430C9F4FC0180E090E0861740
S113416058F430919F052191DC01AF55BA4FA30F4C
S1134170B11D2C930196F3CF80919F05680F609336
S11341809F0580E0089581E0089582E0089585ED1B
S11341908093BC008091BC0084FDFCCF1092EA05A2
S11341A0089585EC8093BC001092EA0508951F924F
S11341B00F920FB60F9211242F933F934F935F9357
S11341C06F937F938F939F93AF93BF93EF93FF93DB
S11341D08091B900887F803609F49EC078F58832D2
S11341E009F45DC090F4803109F456C038F4882392
S11341F009F4F5C0883009F44FC0F5C0883109F4DA
S11342004EC0803209F45FC0EEC0803409F46AC045
S113421058F4803309F457C0883309F0E4C080931C
S11342207D050E94D120DFC0803509F44FC0883558
S113423009F45DC0883409F0D6C0D3C0883909F4C4
S1134240C4C0A8F4883709F467C038F4883609F480
S113425063C0803709F460C0C6C0883809F4B5C0AB
S1134260803909F45FC0803809F0BDC05BC0803B71
S113427009F483C038F4803A09F466C0883A09F432
S11342807CC0B1C0803C09F4A4C0883C09F4A1C03E
S1134290883B09F487C0A7C08091E90510C09091BC
S11342A0C2058091C105981770F5E091C20581E0BF
S11342B08E0F8093C205F0E0ED53FA4F8081809316
S11342C0BB0085EC83C080937D058BC0E091C20563
S11342D081E08E0F8093C2058091BB00F0E0ED5326
S11342E0FA4F80839091C2058091C1056BC0E09123
S11342F0C20581E08E0F8093C2058091BB00F0E07F
S1134300ED53FA4F80838091E80581116AC081E002
S11343108093E70584EA5EC083E08093EA05109207
S11343207E05CFCF80917E05803208F04EC0E091AB
S11343307E0581E08E0F80937E058091BB00F0E0C6
S1134340E158FA4F8083BDCF0E94D12080917E0531
S1134350803230F4E0917E05F0E0E158FA4F1082AB
S113436060917E0570E0E091E305F091E4058FE74C
S113437095E0099510927E0536C084E08093EA05A5
S11343801092A00510929F05E091E505F091E605D5
S1134390099580919F05811105C081E080939F0557
S11343A01092A105E091A00581E08E0F8093A005F5
S11343B0F0E0EF55FA4F80818093BB009091A00507
S11343C080919F05981708F47CCF85E88093BC0002
S11343D00AC085EC8093BC001092EA0504C01092D8
S11343E07D050E94C720FF91EF91BF91AF919F91EE
S11343F08F917F916F915F914F913F912F910F908A
S11344000FBE0F901F9018950E94092208F481E0B6
S11344100895990F0008550FAA0BE0E8FEEF161651
S11344201706E807F907C0F012161306E407F507A4
S113443098F0621B730B840B950B39F40A2661F018
S1134440232B242B252B21F408950A2609F4A140BB
S1134450A6958FEF811D811D08950E94092208F4FD
S11344608FEF08950E940922880B990B0895DB01B0
S11344708F939F930E948822BF91AF91A29F800D3A
S1134480911DA39F900DB29F900D11240895A1E258
S11344901A2EAA1BBB1BFD010DC0AA1FBB1FEE1FBA
S11344A0FF1FA217B307E407F50720F0A21BB30B05
S11344B0E40BF50B661F771F881F991F1A9469F781
S11344C060957095809590959B01AC01BD01CF01DD
S11344D00895052E97FB1EF400940E94802257FD38
S11344E007D00E94472207FC03D04EF40C9480228C
S11344F050954095309521953F4F4F4F5F4F08950C
S113450090958095709561957F4F8F4F9F4F08953B
S11345100E949922A59F900DB49F900DA49F800D99
S1134520911D11240895EE0FFF1F0590F491E02DC5
S11345300994A29FB001B39FC001A39F700D811D78
S11345401124911DB29F700D811D1124911D089598
S111455081E090E0F8940C94AD22F894FFCF33
S113455E09000000803FE803000000C0102700009F
S113456EA08601000040000103070F1F3F7F00805B
S113457EC0E0F0F8FCFE00000000000000000000A7
S113458E0000000000000000000000000000000019
S113459E0000000000000000000000000000000009
S11345AE00000000000000000000000000000000F9
S11345BE0000000000808080000000000000000069
S11345CE000000000000008080C0C0000000000059
S11345DE00000000000000000000000000000000C9
S11345EE00000000000000000000000000000000B9
S11345FE00000000000000000000000000000000A9
S113460E0000000000000000000080C0E0F0F8FC94
S113461EF8E00000000000000000000000000000B0
S113462E0000008080808080008080000000008078
S113463E8080808000FFFFFF00000000808080806B
S113464E00008080000080FFFF808000808000805A
S113465E8080800080800000000000808000008C3C
S113466E8E84000080F8F8F880000000000000003E
S113467E000000000000F0F0F0F0F0F0F0F0F0F0C8
S113468EF0F0E0E0C08000E0FCFEFFFFFF7FFFFFE4
S113469EFFFFFF000000000000000000000000000B
S11346AE00FEFFC70101010183FFFF00007CFEC76E
S11346BE0101010183FFFFFF0038FEC783010101E1
S11346CE83C7FFFF000001FFFF010100FFFF070189
S11346DE010100007FFF80000000FFFF7F0000FF4C
S11346EEFFFF000001FFFFFF0100000000000000BB
S11346FE000000000000030F3F7F7FFFFFFFFFFF5E
S113470EFFFFE7C7C78F8F9FBFFFFFC3C0F0FFFF39
S113471EFFFFFFFCFCFCFCFCFCFCFCF8F8F0F0E0FA
S113472EC00001030303030301030300000000019F
S113473E0303030301010301000000010303030348
S113474E0101030300000003030000000303000043
S113475E0000000000010303030303010000000135
S113476E030100000003030100000000000000002C
S113477E0000000000005B20005D004B487A0053EF
S113478E494E450053510054524900204E4F524D4C
S113479E414C00205357454550002056656C3D0052
S11347AE202D3E200000000000D10E2810A10E186E
S11347BE0F730E8D0E7F0E0D0A006E616E00696E04
S11347CE66006F76660000000000571828109F0FD1
S11347DEA20F28206514361455143D14491484135D
S11347EE65140716061666149F14D8141D153A156B
S11347FEA71500000000571828109F0FA20FFF1BCB
S113480E6514361455143D1449148413651407168F
S113481E0616A51A4A19D8141D153A15A71500001F
S113482E0000B91F8C1F9F0F8B1F601F681F7C1FFA
S9030000FC
