:100000000C942D010C944A010C944A010C944A0161
:100010000C944A010C944A010C944A010C944A0134
:100020000C944A010C944A010C944A010C944A0124
:100030000C944A010C944A010C944A010C944A0114
:100040000C944A010C944A010C944A010C944A0104
:100050000C944A010C944A010C944A010C944A01F4
:100060000C9425020C944A01620368036803680338
:10007000680368036803680356026803680368033B
:10008000680368036803680356026803680368032B
:100090006803680368036803600268036803680311
:1000A00068036803680368038C02680368036803D5
:1000B00068036803680368036002680368036803F1
:1000C00068036803680368039202680368036803AF
:1000D0006803680368036803980268036803680399
:1000E0006803680368036803AE0268036803680373
:1000F0006803680368036803DE0268036803680333
:1001000068036803680368039E0268036803680362
:100110006803680368036803BC0268036803680334
:100120006803680368036803E102680368036803FF
:100130006803680368036803E102680368036803EF
:100140006803680368036803E102680368036803DF
:100150006803680368036803E102680368036803CF
:100160006803680368036803EA02680368036803B6
:10017000680368036803680324036803680368036B
:100180006803680368036803EA0268036803680396
:10019000680368036803680324036803680368034B
:1001A0006803680368036803060368036803680359
:1001B0006803680368036803280368036803680327
:1001C0006803680368036803280368036803680317
:1001D00068036803680368033E03680368036803F1
:1001E00068036803680368035C03680368036803C3
:1001F00068036803680368035C03680368036803B3
:100200006803680368036803680368036803680396
:100210006803680368036803680368036803680386
:100220006803680368036803680368036803680376
:100230006803680368036803680368036803680366
:100240006803680368036803680368036803680356
:100250006803680368036803670311241FBECFEFB8
:10026000D8E0DEBFCDBF11E0A0E0B1E0EEE3F8E002
:1002700002C005900D92A030B107D9F721E0A0E0AF
:10028000B1E001C01D92AE36B207E1F70E94100442
:100290000C941D040C9400000F93CF93DF93CDB703
:1002A000DEB727970FB6F894DEBF0FBECDBF8A83A7
:1002B0007C836B834D832E830F838D81813218F075
:1002C00081E076C00000809100018823D9F782E0A8
:1002D000809300018F81809302018FEF80936D01E5
:1002E000109228018D8180932901198213C0898180
:1002F000882F90E02981222F30E04B815C81240FF0
:10030000351FF9012081885F9E4FFC012083898180
:100310008F5F898399818D81981748F3109201012D
:100320008A81882F90E0880F991F982F8091010172
:10033000892B80930101809103018130C1F41092D7
:1003400003018BEB90E020910101FC0120838CEBF9
:1003500090E0FC018081882F90E088709927892B9C
:1003600081F78CEB90E025ECFC01208307C08CEB3F
:1003700090E025EEFC01208301C000008E818823DF
:1003800021F0809100018230C1F380916D018F3F97
:1003900011F480E00DC080916D01803211F482E093
:1003A00007C080916D01803311F483E001C084E0C7
:1003B00027960FB6F894DEBF0FBECDBFDF91CF9169
:1003C0000F910895CF93DF931F92CDB7DEB7898346
:1003D0008981882331F08CEB90E025ECFC012083AF
:1003E00005C08CEB90E025E8FC01208300000F9015
:1003F000DF91CF910895CF93DF93CDB7DEB78CEB2C
:1004000090E025EDFC01208301C000008CEB90E022
:10041000FC018081882F90E080719927892BA9F7B2
:10042000109200010000DF91CF910895CF93DF93E8
:10043000CDB7DEB78CEB90E025ECFC012083109269
:1004400000010000DF91CF9108951F920F9200905C
:100450005F000F9211242F933F934F935F936F93FD
:100460007F938F939F93AF93BF93EF93FF93CF931C
:10047000DF93CDB7DEB789EB90E0FC018081882F58
:1004800090E0887F9927092E000CAA0BBB0B40E057
:1004900050E028EF30E0841B950B2817390708F44B
:1004A00017C18C5C9F4FFC010C9417048BEB90E000
:1004B00020910101FC01208381E00E94E20108C13A
:1004C00090912801809129019817A0F48BEB90E07E
:1004D0002091280131E0320F30932801222F30E0A3
:1004E000285F3E4FF9012081FC01208381E00E94BA
:1004F000E201EEC080910201882319F00E94FB0105
:10050000E7C081E0809303018CEB90E024EAFC01DA
:10051000208310920001DCC080E280936D010E9474
:10052000FB01D6C080E380936D010E94FB01D0C027
:1005300088E380936D010E941602CAC08091280151
:1005400091E0980F90932801882F90E02BEB30E0FA
:10055000F9012081885F9E4FFC0120839091280142
:1005600080912901981720F481E00E94E201B0C037
:1005700080E00E94E201ACC08091280191E0980FD8
:1005800090932801882F90E02BEB30E0F901208137
:10059000885F9E4FFC01208380910201882319F01F
:1005A0000E94FB0195C081E0809303018CEB90E0F9
:1005B00024EAFC012083109200018AC00E94FB0102
:1005C00087C083E08093000110926C0181E00E945B
:1005D000E2017EC080916C018032A0F480916C01B8
:1005E00091E0980F90936C01882F90E02BEB30E016
:1005F000F9012081845B9E4FFC01208381E00E94F1
:10060000E20166C080E00E94E20162C00E94160220
:1006100080916C01803240F480916C01882F90E0D1
:10062000845B9E4FFC0110822091060130910701EE
:1006300080916C01882F90E0BC018CE491E0F9017D
:10064000099510926C0144C080E00E94E20140C014
:1006500084E08093000110924A0110924B01809136
:10066000040190910501FC01099580914B018823BB
:1006700029F481E080934B0110922A018BEB90E0EA
:1006800020914A0131E0320F30934A01222F30E0AD
:10069000265D3E4FF9012081FC01208390914A01A3
:1006A00080914B01981720F481E00E94E20110C074
:1006B00080E00E94E2010CC081E00E94E201109201
:1006C000000106C010926D010E94FB0101C00000F4
:1006D0000000DF91CF91FF91EF91BF91AF919F917A
:1006E0008F917F916F915F914F913F912F910F90DB
:1006F00000925F000F901F901895CF93DF93CDB7B6
:10070000DEB788E290E028E230E0F9012081206342
:10071000FC01208389EB90E0FC01108288EB90E0E3
:1007200028E4FC0120838CEB90E02CEB30E0F90115
:1007300020812564FC0120830E94A2030000DF9138
:10074000CF910895CF93DF93CDB7DEB78EEA0E94A5
:10075000F80385ED0E94F80380E80E94F80388EA18
:100760000E94F80382E00E94F80383ED0E94F803E0
:1007700080E00E94F80380E40E94F8038DE80E9464
:10078000F80384E10E94F80380E20E94F80380E00D
:100790000E94F80381EA0E94F80388EC0E94F803A3
:1007A0008AED0E94F80382E00E94F80381E80E942B
:1007B000F8038FE80E94F80389ED0E94F80381EFA7
:1007C0000E94F8038BED0E94F80380E40E94F80376
:1007D00084EA0E94F80386EA0E94F8038EE20E94EF
:1007E000F8038FEA0E94F8030000DF91CF9108958B
:1007F0000F93CF93DF9300D0CDB7DEB78A83CE01BE
:10080000029601E020E040E2BC018CE30E944C0132
:10081000898300000F900F90DF91CF910F91089581
:10082000CF93DF93CDB7DEB70E947D03FFCFEE0FEE
:0E083000FF1F0590F491E02D0994F894FFCF7E
:00000001FF
